{
  "_format": "hh-sol-artifact-1",
  "contractName": "GYFICrowdsale",
  "sourceName": "contracts/GYFICrowdsale.sol",
  "abi": [
    {
      "inputs": [
        {
          "internalType": "uint256",
          "name": "rate",
          "type": "uint256"
        },
        {
          "internalType": "address payable",
          "name": "wallet",
          "type": "address"
        },
        {
          "internalType": "contract IERC20",
          "name": "token",
          "type": "address"
        },
        {
          "internalType": "address",
          "name": "tokenWallet",
          "type": "address"
        },
        {
          "internalType": "uint256",
          "name": "cap",
          "type": "uint256"
        },
        {
          "internalType": "uint256",
          "name": "openingTime",
          "type": "uint256"
        },
        {
          "internalType": "uint256",
          "name": "closingTime",
          "type": "uint256"
        },
        {
          "internalType": "uint256",
          "name": "_perBeneficiaryCap",
          "type": "uint256"
        }
      ],
      "stateMutability": "nonpayable",
      "type": "constructor"
    },
    {
      "anonymous": false,
      "inputs": [
        {
          "indexed": false,
          "internalType": "uint256",
          "name": "prevClosingTime",
          "type": "uint256"
        },
        {
          "indexed": false,
          "internalType": "uint256",
          "name": "newClosingTime",
          "type": "uint256"
        }
      ],
      "name": "TimedCrowdsaleExtended",
      "type": "event"
    },
    {
      "anonymous": false,
      "inputs": [
        {
          "indexed": true,
          "internalType": "address",
          "name": "purchaser",
          "type": "address"
        },
        {
          "indexed": true,
          "internalType": "address",
          "name": "beneficiary",
          "type": "address"
        },
        {
          "indexed": false,
          "internalType": "uint256",
          "name": "value",
          "type": "uint256"
        },
        {
          "indexed": false,
          "internalType": "uint256",
          "name": "amount",
          "type": "uint256"
        }
      ],
      "name": "TokensPurchased",
      "type": "event"
    },
    {
      "anonymous": false,
      "inputs": [
        {
          "indexed": true,
          "internalType": "address",
          "name": "account",
          "type": "address"
        }
      ],
      "name": "WhitelistAdminAdded",
      "type": "event"
    },
    {
      "anonymous": false,
      "inputs": [
        {
          "indexed": true,
          "internalType": "address",
          "name": "account",
          "type": "address"
        }
      ],
      "name": "WhitelistAdminRemoved",
      "type": "event"
    },
    {
      "anonymous": false,
      "inputs": [
        {
          "indexed": true,
          "internalType": "address",
          "name": "account",
          "type": "address"
        }
      ],
      "name": "WhitelistedAdded",
      "type": "event"
    },
    {
      "anonymous": false,
      "inputs": [
        {
          "indexed": true,
          "internalType": "address",
          "name": "account",
          "type": "address"
        }
      ],
      "name": "WhitelistedRemoved",
      "type": "event"
    },
    {
      "inputs": [
        {
          "internalType": "address",
          "name": "account",
          "type": "address"
        }
      ],
      "name": "addWhitelistAdmin",
      "outputs": [],
      "stateMutability": "nonpayable",
      "type": "function"
    },
    {
      "inputs": [
        {
          "internalType": "address",
          "name": "account",
          "type": "address"
        }
      ],
      "name": "addWhitelisted",
      "outputs": [],
      "stateMutability": "nonpayable",
      "type": "function"
    },
    {
      "inputs": [
        {
          "internalType": "address[]",
          "name": "accounts",
          "type": "address[]"
        }
      ],
      "name": "addWhitelistedAll",
      "outputs": [],
      "stateMutability": "nonpayable",
      "type": "function"
    },
    {
      "inputs": [
        {
          "internalType": "address",
          "name": "beneficiary",
          "type": "address"
        }
      ],
      "name": "buyTokens",
      "outputs": [],
      "stateMutability": "payable",
      "type": "function"
    },
    {
      "inputs": [],
      "name": "cap",
      "outputs": [
        {
          "internalType": "uint256",
          "name": "",
          "type": "uint256"
        }
      ],
      "stateMutability": "view",
      "type": "function"
    },
    {
      "inputs": [],
      "name": "capReached",
      "outputs": [
        {
          "internalType": "bool",
          "name": "",
          "type": "bool"
        }
      ],
      "stateMutability": "view",
      "type": "function"
    },
    {
      "inputs": [],
      "name": "closingTime",
      "outputs": [
        {
          "internalType": "uint256",
          "name": "",
          "type": "uint256"
        }
      ],
      "stateMutability": "view",
      "type": "function"
    },
    {
      "inputs": [
        {
          "internalType": "address",
          "name": "",
          "type": "address"
        }
      ],
      "name": "contribution",
      "outputs": [
        {
          "internalType": "uint256",
          "name": "",
          "type": "uint256"
        }
      ],
      "stateMutability": "view",
      "type": "function"
    },
    {
      "inputs": [],
      "name": "hasClosed",
      "outputs": [
        {
          "internalType": "bool",
          "name": "",
          "type": "bool"
        }
      ],
      "stateMutability": "view",
      "type": "function"
    },
    {
      "inputs": [],
      "name": "isOpen",
      "outputs": [
        {
          "internalType": "bool",
          "name": "",
          "type": "bool"
        }
      ],
      "stateMutability": "view",
      "type": "function"
    },
    {
      "inputs": [
        {
          "internalType": "address",
          "name": "account",
          "type": "address"
        }
      ],
      "name": "isWhitelistAdmin",
      "outputs": [
        {
          "internalType": "bool",
          "name": "",
          "type": "bool"
        }
      ],
      "stateMutability": "view",
      "type": "function"
    },
    {
      "inputs": [
        {
          "internalType": "address",
          "name": "account",
          "type": "address"
        }
      ],
      "name": "isWhitelisted",
      "outputs": [
        {
          "internalType": "bool",
          "name": "",
          "type": "bool"
        }
      ],
      "stateMutability": "view",
      "type": "function"
    },
    {
      "inputs": [],
      "name": "openingTime",
      "outputs": [
        {
          "internalType": "uint256",
          "name": "",
          "type": "uint256"
        }
      ],
      "stateMutability": "view",
      "type": "function"
    },
    {
      "inputs": [],
      "name": "perBeneficiaryCap",
      "outputs": [
        {
          "internalType": "uint256",
          "name": "",
          "type": "uint256"
        }
      ],
      "stateMutability": "view",
      "type": "function"
    },
    {
      "inputs": [],
      "name": "rate",
      "outputs": [
        {
          "internalType": "uint256",
          "name": "",
          "type": "uint256"
        }
      ],
      "stateMutability": "view",
      "type": "function"
    },
    {
      "inputs": [],
      "name": "remainingTokens",
      "outputs": [
        {
          "internalType": "uint256",
          "name": "",
          "type": "uint256"
        }
      ],
      "stateMutability": "view",
      "type": "function"
    },
    {
      "inputs": [
        {
          "internalType": "address",
          "name": "account",
          "type": "address"
        }
      ],
      "name": "removeWhitelisted",
      "outputs": [],
      "stateMutability": "nonpayable",
      "type": "function"
    },
    {
      "inputs": [
        {
          "internalType": "address[]",
          "name": "accounts",
          "type": "address[]"
        }
      ],
      "name": "removeWhitelistedAll",
      "outputs": [],
      "stateMutability": "nonpayable",
      "type": "function"
    },
    {
      "inputs": [],
      "name": "renounceWhitelistAdmin",
      "outputs": [],
      "stateMutability": "nonpayable",
      "type": "function"
    },
    {
      "inputs": [],
      "name": "renounceWhitelisted",
      "outputs": [],
      "stateMutability": "nonpayable",
      "type": "function"
    },
    {
      "inputs": [],
      "name": "token",
      "outputs": [
        {
          "internalType": "contract IERC20",
          "name": "",
          "type": "address"
        }
      ],
      "stateMutability": "view",
      "type": "function"
    },
    {
      "inputs": [],
      "name": "tokenWallet",
      "outputs": [
        {
          "internalType": "address",
          "name": "",
          "type": "address"
        }
      ],
      "stateMutability": "view",
      "type": "function"
    },
    {
      "inputs": [],
      "name": "wallet",
      "outputs": [
        {
          "internalType": "address payable",
          "name": "",
          "type": "address"
        }
      ],
      "stateMutability": "view",
      "type": "function"
    },
    {
      "inputs": [],
      "name": "weiRaised",
      "outputs": [
        {
          "internalType": "uint256",
          "name": "",
          "type": "uint256"
        }
      ],
      "stateMutability": "view",
      "type": "function"
    },
    {
      "stateMutability": "payable",
      "type": "receive"
    }
  ],
  "bytecode": "0x60806040523480156200001157600080fd5b5060405162001800380380620018008339810160408190526200003491620004c4565b828285878b8b8b62000046336200036d565b6001600255826200009e5760405162461bcd60e51b815260206004820152601460248201527f43726f776473616c653a2072617465206973203000000000000000000000000060448201526064015b60405180910390fd5b6001600160a01b038216620001045760405162461bcd60e51b815260206004820152602560248201527f43726f776473616c653a2077616c6c657420697320746865207a65726f206164604482015264647265737360d81b606482015260840162000095565b6001600160a01b038116620001685760405162461bcd60e51b8152602060048201526024808201527f43726f776473616c653a20746f6b656e20697320746865207a65726f206164646044820152637265737360e01b606482015260840162000095565b600592909255600480546001600160a01b03199081166001600160a01b039384161790915560038054909116928216929092179091558116620002145760405162461bcd60e51b815260206004820152603460248201527f416c6c6f77616e636543726f776473616c653a20746f6b656e2077616c6c657460448201527f20697320746865207a65726f2061646472657373000000000000000000000000606482015260840162000095565b600780546001600160a01b0319166001600160a01b039290921691909117905580620002835760405162461bcd60e51b815260206004820152601960248201527f43617070656443726f776473616c653a20636170206973203000000000000000604482015260640162000095565b60085542821015620002ed5760405162461bcd60e51b81526020600482015260336024820152600080516020620017e083398151915260448201527f6265666f72652063757272656e742074696d6500000000000000000000000000606482015260840162000095565b818111620003535760405162461bcd60e51b81526020600482015260376024820152600080516020620017e083398151915260448201527f6e6f74206265666f726520636c6f73696e672074696d65000000000000000000606482015260840162000095565b600991909155600a55600b55506200055f95505050505050565b62000388816000620003bf60201b6200080f1790919060201c565b6040516001600160a01b038216907f22380c05984257a1cb900161c713dd71d39e74820f1aea43bd3f1bdd2096129990600090a250565b620003cb82826200043f565b156200041a5760405162461bcd60e51b815260206004820152601f60248201527f526f6c65733a206163636f756e7420616c72656164792068617320726f6c6500604482015260640162000095565b6001600160a01b0316600090815260209190915260409020805460ff19166001179055565b60006001600160a01b038216620004a45760405162461bcd60e51b815260206004820152602260248201527f526f6c65733a206163636f756e7420697320746865207a65726f206164647265604482015261737360f01b606482015260840162000095565b506001600160a01b03166000908152602091909152604090205460ff1690565b600080600080600080600080610100898b031215620004e1578384fd5b885197506020890151620004f58162000546565b60408a0151909750620005088162000546565b60608a01519096506200051b8162000546565b60808a015160a08b015160c08c015160e0909c01519a9d999c50979a91999098919650945092505050565b6001600160a01b03811681146200055c57600080fd5b50565b611271806200056f6000396000f3fe60806040526004361061014f5760003560e01c806365dff64c116100b6578063c3c8442c1161006f578063c3c8442c14610364578063d527f84014610384578063d6cd94731461039a578063e2dc4310146103af578063ec8ac4d8146103dc578063fc0c546a146103ea57610160565b806365dff64c146102bc5780637362d9c8146102dc578063b7a8807c146102fc578063bb5f747b14610311578063bf58390314610331578063bff99c6c1461034657610160565b80634042b66f116101085780634042b66f1461022157806347535d7b146102365780634b6753bc1461024b5780634c5a628c146102605780634f93594514610275578063521eb2731461028a57610160565b806310154bad146101655780631515bc2b14610185578063291d9549146101ad5780632c4e722e146101cd578063355274ea146101ec5780633af32abf1461020157610160565b366101605761015e335b610408565b005b600080fd5b34801561017157600080fd5b5061015e61018036600461102b565b6104f8565b34801561019157600080fd5b50600a5442115b60405190151581526020015b60405180910390f35b3480156101b957600080fd5b5061015e6101c836600461102b565b610529565b3480156101d957600080fd5b506005545b6040519081526020016101a4565b3480156101f857600080fd5b506008546101de565b34801561020d57600080fd5b5061019861021c36600461102b565b610557565b34801561022d57600080fd5b506006546101de565b34801561024257600080fd5b5061019861056a565b34801561025757600080fd5b50600a546101de565b34801561026c57600080fd5b5061015e610585565b34801561028157600080fd5b50610198610590565b34801561029657600080fd5b506004546001600160a01b03165b6040516001600160a01b0390911681526020016101a4565b3480156102c857600080fd5b5061015e6102d7366004611052565b6105a5565b3480156102e857600080fd5b5061015e6102f736600461102b565b610628565b34801561030857600080fd5b506009546101de565b34801561031d57600080fd5b5061019861032c36600461102b565b610656565b34801561033d57600080fd5b506101de610662565b34801561035257600080fd5b506007546001600160a01b03166102a4565b34801561037057600080fd5b5061015e61037f366004611052565b610788565b34801561039057600080fd5b506101de600b5481565b3480156103a657600080fd5b5061015e610806565b3480156103bb57600080fd5b506101de6103ca36600461102b565b600c6020526000908152604090205481565b61015e61015936600461102b565b3480156103f657600080fd5b506003546001600160a01b03166102a4565b60028054141561045f5760405162461bcd60e51b815260206004820152601f60248201527f5265656e7472616e637947756172643a207265656e7472616e742063616c6c0060448201526064015b60405180910390fd5b600280553461046e828261088b565b600061047982610930565b6006549091506104899083610947565b600655610496838261095a565b60408051838152602081018390526001600160a01b0385169133917f6faf93231a456e552dbc9961f58d9713ee4f2e69d15f1975b050ef0911053a7b910160405180910390a36104e68383610964565b6104ee6109a7565b5050600160025550565b6105013361032c565b61051d5760405162461bcd60e51b815260040161045690611149565b610526816109e0565b50565b6105323361032c565b61054e5760405162461bcd60e51b815260040161045690611149565b61052681610a22565b6000610564600183610a64565b92915050565b600060095442101580156105805750600a544211155b905090565b61058e33610ae7565b565b600060085461059e60065490565b1015905090565b6105ae3361032c565b6105ca5760405162461bcd60e51b815260040161045690611149565b805b81811015610623576106118383838181106105f757634e487b7160e01b600052603260045260246000fd5b905060200201602081019061060c919061102b565b610a22565b8061061b8161120a565b9150506105cc565b505050565b6106313361032c565b61064d5760405162461bcd60e51b815260040161045690611149565b61052681610b29565b60006105648183610a64565b60006105806106796003546001600160a01b031690565b6007546040516370a0823160e01b81526001600160a01b0391821660048201529116906370a082319060240160206040518083038186803b1580156106bd57600080fd5b505afa1580156106d1573d6000803e3d6000fd5b505050506040513d601f19601f820116820180604052508101906106f591906110e2565b6003546001600160a01b0316600754604051636eb1769f60e11b81526001600160a01b03918216600482015230602482015291169063dd62ed3e9060440160206040518083038186803b15801561074b57600080fd5b505afa15801561075f573d6000803e3d6000fd5b505050506040513d601f19601f8201168201806040525081019061078391906110e2565b610b6b565b6107913361032c565b6107ad5760405162461bcd60e51b815260040161045690611149565b805b81811015610623576107f48383838181106107da57634e487b7160e01b600052603260045260246000fd5b90506020020160208101906107ef919061102b565b6109e0565b806107fe8161120a565b9150506107af565b61058e3361060c565b6108198282610a64565b156108665760405162461bcd60e51b815260206004820152601f60248201527f526f6c65733a206163636f756e7420616c72656164792068617320726f6c65006044820152606401610456565b6001600160a01b0316600090815260209190915260409020805460ff19166001179055565b600b546001600160a01b0383166000908152600c60205260409020546108b19083610947565b111561090e5760405162461bcd60e51b815260206004820152602660248201527f4759464943726f776473616c653a20436f6e747269627574696f6e2061626f76604482015265329031b0b81760d11b6064820152608401610456565b6109188282610b81565b6109228282610be5565b61092c8282610c39565b5050565b600061056460055483610cbe90919063ffffffff16565b600061095382846111a7565b9392505050565b61092c8282610cca565b6001600160a01b0382166000908152600c60205260409020546109879082610947565b6001600160a01b039092166000908152600c602052604090209190915550565b6004546040516001600160a01b03909116903480156108fc02916000818181858888f19350505050158015610526573d6000803e3d6000fd5b6109eb60018261080f565b6040516001600160a01b038216907fee1504a83b6d4a361f4c1dc78ab59bfa30d6a3b6612c403e86bb01ef2984295f90600090a250565b610a2d600182610cd4565b6040516001600160a01b038216907f270d9b30cf5b0793bbfd54c9d5b94aeb49462b8148399000265144a8722da6b690600090a250565b60006001600160a01b038216610ac75760405162461bcd60e51b815260206004820152602260248201527f526f6c65733a206163636f756e7420697320746865207a65726f206164647265604482015261737360f01b6064820152608401610456565b506001600160a01b03166000908152602091909152604090205460ff1690565b610af2600082610cd4565b6040516001600160a01b038216907f0a8eb35e5ca14b3d6f28e4abf2f128dbab231a58b56e89beb5d636115001e16590600090a250565b610b3460008261080f565b6040516001600160a01b038216907f22380c05984257a1cb900161c713dd71d39e74820f1aea43bd3f1bdd2096129990600090a250565b6000818310610b7a5781610953565b5090919050565b600854610b9782610b9160065490565b90610947565b111561092c5760405162461bcd60e51b815260206004820152601d60248201527f43617070656443726f776473616c653a206361702065786365656465640000006044820152606401610456565b610bed61056a565b61092c5760405162461bcd60e51b815260206004820152601860248201527f54696d656443726f776473616c653a206e6f74206f70656e00000000000000006044820152606401610456565b610c4282610557565b61092c5760405162461bcd60e51b815260206004820152604160248201527f57686974656c69737443726f776473616c653a2062656e65666963696172792060448201527f646f65736e27742068617665207468652057686974656c697374656420726f6c6064820152606560f81b608482015260a401610456565b600061095382846111bf565b61092c8282610d56565b610cde8282610a64565b610d345760405162461bcd60e51b815260206004820152602160248201527f526f6c65733a206163636f756e7420646f6573206e6f74206861766520726f6c6044820152606560f81b6064820152608401610456565b6001600160a01b0316600090815260209190915260409020805460ff19169055565b60075461092c906001600160a01b03168383610d7a6003546001600160a01b031690565b604080516001600160a01b038681166024830152858116604483015260648083018690528351808403909101815260849092019092526020810180516001600160e01b03166323b872dd60e01b179052911693929190610ddb908590610de1565b50505050565b6000610e36826040518060400160405280602081526020017f5361666545524332303a206c6f772d6c6576656c2063616c6c206661696c6564815250856001600160a01b0316610eb39092919063ffffffff16565b8051909150156106235780806020019051810190610e5491906110c2565b6106235760405162461bcd60e51b815260206004820152602a60248201527f5361666545524332303a204552433230206f7065726174696f6e20646964206e6044820152691bdd081cdd58d8d9595960b21b6064820152608401610456565b6060610ec28484600085610eca565b949350505050565b606082471015610f2b5760405162461bcd60e51b815260206004820152602660248201527f416464726573733a20696e73756666696369656e742062616c616e636520666f6044820152651c8818d85b1b60d21b6064820152608401610456565b843b610f795760405162461bcd60e51b815260206004820152601d60248201527f416464726573733a2063616c6c20746f206e6f6e2d636f6e74726163740000006044820152606401610456565b600080866001600160a01b03168587604051610f9591906110fa565b60006040518083038185875af1925050503d8060008114610fd2576040519150601f19603f3d011682016040523d82523d6000602084013e610fd7565b606091505b5091509150610fe7828286610ff2565b979650505050505050565b60608315611001575081610953565b8251156110115782518084602001fd5b8160405162461bcd60e51b81526004016104569190611116565b60006020828403121561103c578081fd5b81356001600160a01b0381168114610953578182fd5b60008060208385031215611064578081fd5b823567ffffffffffffffff8082111561107b578283fd5b818501915085601f83011261108e578283fd5b81358181111561109c578384fd5b8660208260051b85010111156110b0578384fd5b60209290920196919550909350505050565b6000602082840312156110d3578081fd5b81518015158114610953578182fd5b6000602082840312156110f3578081fd5b5051919050565b6000825161110c8184602087016111de565b9190910192915050565b60006020825282518060208401526111358160408501602087016111de565b601f01601f19169190910160400192915050565b602080825260409082018190527f57686974656c69737441646d696e526f6c653a2063616c6c657220646f657320908201527f6e6f742068617665207468652057686974656c69737441646d696e20726f6c65606082015260800190565b600082198211156111ba576111ba611225565b500190565b60008160001904831182151516156111d9576111d9611225565b500290565b60005b838110156111f95781810151838201526020016111e1565b83811115610ddb5750506000910152565b600060001982141561121e5761121e611225565b5060010190565b634e487b7160e01b600052601160045260246000fdfea2646970667358221220df44daca5451285286619a99b45f845bb17b4d5b7fe252d6a68621e639a7472764736f6c6343000803003354696d656443726f776473616c653a206f70656e696e672074696d6520697320",
  "linkReferences": {},
  "deployedLinkReferences": {}
}